{
  "_format": "hh-sol-artifact-1",
  "contractName": "Voting",
  "sourceName": "contracts/Voting.sol",
  "abi": [
    {
      "inputs": [],
      "stateMutability": "nonpayable",
      "type": "constructor"
    },
    {
      "inputs": [
        {
          "internalType": "string",
          "name": "name",
          "type": "string"
        }
      ],
      "name": "addCandidate",
      "outputs": [],
      "stateMutability": "nonpayable",
      "type": "function"
    },
    {
      "inputs": [],
      "name": "getCandidates",
      "outputs": [
        {
          "components": [
            {
              "internalType": "string",
              "name": "name",
              "type": "string"
            },
            {
              "internalType": "uint256",
              "name": "voteCount",
              "type": "uint256"
            }
          ],
          "internalType": "struct Voting.Candidate[]",
          "name": "",
          "type": "tuple[]"
        }
      ],
      "stateMutability": "view",
      "type": "function"
    },
    {
      "inputs": [],
      "name": "getWinner",
      "outputs": [
        {
          "internalType": "string",
          "name": "winnerName",
          "type": "string"
        }
      ],
      "stateMutability": "view",
      "type": "function"
    },
    {
      "inputs": [
        {
          "internalType": "address",
          "name": "",
          "type": "address"
        }
      ],
      "name": "hasVoted",
      "outputs": [
        {
          "internalType": "bool",
          "name": "",
          "type": "bool"
        }
      ],
      "stateMutability": "view",
      "type": "function"
    },
    {
      "inputs": [],
      "name": "owner",
      "outputs": [
        {
          "internalType": "address",
          "name": "",
          "type": "address"
        }
      ],
      "stateMutability": "view",
      "type": "function"
    },
    {
      "inputs": [
        {
          "internalType": "uint256",
          "name": "candidateIndex",
          "type": "uint256"
        }
      ],
      "name": "vote",
      "outputs": [],
      "stateMutability": "nonpayable",
      "type": "function"
    }
  ],
  "bytecode": "0x6080604052348015600f57600080fd5b50336000806101000a81548173ffffffffffffffffffffffffffffffffffffffff021916908373ffffffffffffffffffffffffffffffffffffffff16021790555061108b8061005f6000396000f3fe608060405234801561001057600080fd5b50600436106100625760003560e01c80630121b93f1461006757806306a49fce1461008357806309eef43e146100a1578063462e91ec146100d15780638da5cb5b146100ed5780638e7ea5b21461010b575b600080fd5b610081600480360381019061007c9190610756565b610129565b005b61008b610294565b6040516100989190610921565b60405180910390f35b6100bb60048036038101906100b691906109a1565b61038f565b6040516100c891906109e9565b60405180910390f35b6100eb60048036038101906100e69190610a69565b6103af565b005b6100f56104e8565b6040516101029190610ac5565b60405180910390f35b61011361050c565b6040516101209190610b2a565b60405180910390f35b6001805490508110610170576040517f08c379a000000000000000000000000000000000000000000000000000000000815260040161016790610b98565b60405180910390fd5b600260003373ffffffffffffffffffffffffffffffffffffffff1673ffffffffffffffffffffffffffffffffffffffff16815260200190815260200160002060009054906101000a900460ff16156101fd576040517f08c379a00000000000000000000000000000000000000000000000000000000081526004016101f490610c04565b60405180910390fd5b6001600260003373ffffffffffffffffffffffffffffffffffffffff1673ffffffffffffffffffffffffffffffffffffffff16815260200190815260200160002060006101000a81548160ff021916908315150217905550600180828154811061026a57610269610c24565b5b9060005260206000209060020201600101600082825461028a9190610c82565b9250508190555050565b60606001805480602002602001604051908101604052809291908181526020016000905b8282101561038657838290600052602060002090600202016040518060400160405290816000820180546102eb90610ce5565b80601f016020809104026020016040519081016040528092919081815260200182805461031790610ce5565b80156103645780601f1061033957610100808354040283529160200191610364565b820191906000526020600020905b81548152906001019060200180831161034757829003601f168201915b50505050508152602001600182015481525050815260200190600101906102b8565b50505050905090565b60026020528060005260406000206000915054906101000a900460ff1681565b60008054906101000a900473ffffffffffffffffffffffffffffffffffffffff1673ffffffffffffffffffffffffffffffffffffffff163373ffffffffffffffffffffffffffffffffffffffff161461043d576040517f08c379a000000000000000000000000000000000000000000000000000000000815260040161043490610d88565b60405180910390fd5b6001604051806040016040528084848080601f016020809104026020016040519081016040528093929190818152602001838380828437600081840152601f19601f8201169050808301925050505050505081526020016000815250908060018154018082558091505060019003906000526020600020906002020160009091909190915060008201518160000190816104d79190610f83565b506020820151816001015550505050565b60008054906101000a900473ffffffffffffffffffffffffffffffffffffffff1681565b60606000806000805b6001805490508110156105d057836001828154811061053757610536610c24565b5b9060005260206000209060020201600101541115610583576001818154811061056357610562610c24565b5b9060005260206000209060020201600101549350809250600091506105c3565b836001828154811061059857610597610c24565b5b9060005260206000209060020201600101541480156105b8575060008414155b156105c257600191505b5b8080600101915050610515565b5060008303610619576040518060400160405280600d81526020017f4e6f20766f7465732063617374000000000000000000000000000000000000008152509350505050610713565b801561065f576040518060400160405280600a81526020017f49742773206120746965000000000000000000000000000000000000000000008152509350505050610713565b6001828154811061067357610672610c24565b5b9060005260206000209060020201600001805461068f90610ce5565b80601f01602080910402602001604051908101604052809291908181526020018280546106bb90610ce5565b80156107085780601f106106dd57610100808354040283529160200191610708565b820191906000526020600020905b8154815290600101906020018083116106eb57829003601f168201915b505050505093505050505b90565b600080fd5b600080fd5b6000819050919050565b61073381610720565b811461073e57600080fd5b50565b6000813590506107508161072a565b92915050565b60006020828403121561076c5761076b610716565b5b600061077a84828501610741565b91505092915050565b600081519050919050565b600082825260208201905092915050565b6000819050602082019050919050565b600081519050919050565b600082825260208201905092915050565b60005b838110156107e95780820151818401526020810190506107ce565b60008484015250505050565b6000601f19601f8301169050919050565b6000610811826107af565b61081b81856107ba565b935061082b8185602086016107cb565b610834816107f5565b840191505092915050565b61084881610720565b82525050565b6000604083016000830151848203600086015261086b8282610806565b9150506020830151610880602086018261083f565b508091505092915050565b6000610897838361084e565b905092915050565b6000602082019050919050565b60006108b782610783565b6108c1818561078e565b9350836020820285016108d38561079f565b8060005b8581101561090f57848403895281516108f0858261088b565b94506108fb8361089f565b925060208a019950506001810190506108d7565b50829750879550505050505092915050565b6000602082019050818103600083015261093b81846108ac565b905092915050565b600073ffffffffffffffffffffffffffffffffffffffff82169050919050565b600061096e82610943565b9050919050565b61097e81610963565b811461098957600080fd5b50565b60008135905061099b81610975565b92915050565b6000602082840312156109b7576109b6610716565b5b60006109c58482850161098c565b91505092915050565b60008115159050919050565b6109e3816109ce565b82525050565b60006020820190506109fe60008301846109da565b92915050565b600080fd5b600080fd5b600080fd5b60008083601f840112610a2957610a28610a04565b5b8235905067ffffffffffffffff811115610a4657610a45610a09565b5b602083019150836001820283011115610a6257610a61610a0e565b5b9250929050565b60008060208385031215610a8057610a7f610716565b5b600083013567ffffffffffffffff811115610a9e57610a9d61071b565b5b610aaa85828601610a13565b92509250509250929050565b610abf81610963565b82525050565b6000602082019050610ada6000830184610ab6565b92915050565b600082825260208201905092915050565b6000610afc826107af565b610b068185610ae0565b9350610b168185602086016107cb565b610b1f816107f5565b840191505092915050565b60006020820190508181036000830152610b448184610af1565b905092915050565b7f496e76616c69642063616e64696461746520696e646578000000000000000000600082015250565b6000610b82601783610ae0565b9150610b8d82610b4c565b602082019050919050565b60006020820190508181036000830152610bb181610b75565b9050919050565b7f596f75206861766520616c726561647920766f74656400000000000000000000600082015250565b6000610bee601683610ae0565b9150610bf982610bb8565b602082019050919050565b60006020820190508181036000830152610c1d81610be1565b9050919050565b7f4e487b7100000000000000000000000000000000000000000000000000000000600052603260045260246000fd5b7f4e487b7100000000000000000000000000000000000000000000000000000000600052601160045260246000fd5b6000610c8d82610720565b9150610c9883610720565b9250828201905080821115610cb057610caf610c53565b5b92915050565b7f4e487b7100000000000000000000000000000000000000000000000000000000600052602260045260246000fd5b60006002820490506001821680610cfd57607f821691505b602082108103610d1057610d0f610cb6565b5b50919050565b7f4f6e6c79206f776e65722063616e2063616c6c20746869732066756e6374696f60008201527f6e00000000000000000000000000000000000000000000000000000000000000602082015250565b6000610d72602183610ae0565b9150610d7d82610d16565b604082019050919050565b60006020820190508181036000830152610da181610d65565b9050919050565b7f4e487b7100000000000000000000000000000000000000000000000000000000600052604160045260246000fd5b60008190508160005260206000209050919050565b60006020601f8301049050919050565b600082821b905092915050565b600060088302610e397fffffffffffffffffffffffffffffffffffffffffffffffffffffffffffffffff82610dfc565b610e438683610dfc565b95508019841693508086168417925050509392505050565b6000819050919050565b6000610e80610e7b610e7684610720565b610e5b565b610720565b9050919050565b6000819050919050565b610e9a83610e65565b610eae610ea682610e87565b848454610e09565b825550505050565b600090565b610ec3610eb6565b610ece818484610e91565b505050565b5b81811015610ef257610ee7600082610ebb565b600181019050610ed4565b5050565b601f821115610f3757610f0881610dd7565b610f1184610dec565b81016020851015610f20578190505b610f34610f2c85610dec565b830182610ed3565b50505b505050565b600082821c905092915050565b6000610f5a60001984600802610f3c565b1980831691505092915050565b6000610f738383610f49565b9150826002028217905092915050565b610f8c826107af565b67ffffffffffffffff811115610fa557610fa4610da8565b5b610faf8254610ce5565b610fba828285610ef6565b600060209050601f831160018114610fed5760008415610fdb578287015190505b610fe58582610f67565b86555061104d565b601f198416610ffb86610dd7565b60005b8281101561102357848901518255600182019150602085019450602081019050610ffe565b86831015611040578489015161103c601f891682610f49565b8355505b6001600288020188555050505b50505050505056fea2646970667358221220ff1aed0c1587d72a86090cfd6431fc2ab94bbb1aa94b6954642b773d67fa0f7b64736f6c634300081c0033",
  "linkReferences": {},
  "deployedLinkReferences": {}
}